{
  "contractName": "SurajyaCore",
  "abi": [
    {
      "anonymous": false,
      "inputs": [
        {
          "indexed": true,
          "internalType": "uint256",
          "name": "id",
          "type": "uint256"
        },
        {
          "indexed": true,
          "internalType": "address",
          "name": "citizen",
          "type": "address"
        }
      ],
      "name": "GrievanceCreated",
      "type": "event"
    },
    {
      "anonymous": false,
      "inputs": [
        {
          "indexed": true,
          "internalType": "uint256",
          "name": "id",
          "type": "uint256"
        },
        {
          "indexed": true,
          "internalType": "address",
          "name": "citizen",
          "type": "address"
        }
      ],
      "name": "GrievanceResolved",
      "type": "event"
    },
    {
      "inputs": [],
      "name": "grievanceCount",
      "outputs": [
        {
          "internalType": "uint256",
          "name": "",
          "type": "uint256"
        }
      ],
      "stateMutability": "view",
      "type": "function",
      "constant": true
    },
    {
      "inputs": [
        {
          "internalType": "uint256",
          "name": "",
          "type": "uint256"
        }
      ],
      "name": "grievances",
      "outputs": [
        {
          "internalType": "uint256",
          "name": "id",
          "type": "uint256"
        },
        {
          "internalType": "string",
          "name": "category",
          "type": "string"
        },
        {
          "internalType": "string",
          "name": "locationHash",
          "type": "string"
        },
        {
          "internalType": "string",
          "name": "detailsHash",
          "type": "string"
        },
        {
          "internalType": "address",
          "name": "citizen",
          "type": "address"
        },
        {
          "internalType": "enum SurajyaCore.Status",
          "name": "status",
          "type": "uint8"
        },
        {
          "internalType": "uint256",
          "name": "createdAt",
          "type": "uint256"
        },
        {
          "internalType": "uint256",
          "name": "updatedAt",
          "type": "uint256"
        }
      ],
      "stateMutability": "view",
      "type": "function",
      "constant": true
    },
    {
      "inputs": [
        {
          "internalType": "string",
          "name": "_category",
          "type": "string"
        },
        {
          "internalType": "string",
          "name": "_locationHash",
          "type": "string"
        },
        {
          "internalType": "string",
          "name": "_detailsHash",
          "type": "string"
        }
      ],
      "name": "createGrievance",
      "outputs": [],
      "stateMutability": "nonpayable",
      "type": "function"
    },
    {
      "inputs": [
        {
          "internalType": "uint256",
          "name": "_id",
          "type": "uint256"
        }
      ],
      "name": "resolveGrievance",
      "outputs": [],
      "stateMutability": "nonpayable",
      "type": "function"
    }
  ],
  "bytecode": "0x608060405234801561000f575f80fd5b50610e5d8061001d5f395ff3fe608060405234801561000f575f80fd5b506004361061004a575f3560e01c8063356f1d751461004e5780633bf5dbf91461008557806359442453146100a15780636d0f91d9146100bd575b5f80fd5b6100686004803603810190610063919061062a565b6100db565b60405161007c9897969594939291906107a0565b60405180910390f35b61009f600480360381019061009a919061062a565b6102dd565b005b6100bb60048036038101906100b6919061095d565b610435565b005b6100c56105e1565b6040516100d29190610a01565b60405180910390f35b6001602052805f5260405f205f91509050805f01549080600101805461010090610a47565b80601f016020809104026020016040519081016040528092919081815260200182805461012c90610a47565b80156101775780601f1061014e57610100808354040283529160200191610177565b820191905f5260205f20905b81548152906001019060200180831161015a57829003601f168201915b50505050509080600201805461018c90610a47565b80601f01602080910402602001604051908101604052809291908181526020018280546101b890610a47565b80156102035780601f106101da57610100808354040283529160200191610203565b820191905f5260205f20905b8154815290600101906020018083116101e657829003601f168201915b50505050509080600301805461021890610a47565b80601f016020809104026020016040519081016040528092919081815260200182805461024490610a47565b801561028f5780601f106102665761010080835404028352916020019161028f565b820191905f5260205f20905b81548152906001019060200180831161027257829003601f168201915b505050505090806004015f9054906101000a900473ffffffffffffffffffffffffffffffffffffffff16908060040160149054906101000a900460ff16908060050154908060060154905088565b5f811180156102ed57505f548111155b61032c576040517f08c379a000000000000000000000000000000000000000000000000000000000815260040161032390610ac1565b60405180910390fd5b5f60015f8381526020019081526020015f2090505f60018111156103535761035261072d565b5b8160040160149054906101000a900460ff1660018111156103775761037661072d565b5b146103b7576040517f08c379a00000000000000000000000000000000000000000000000000000000081526004016103ae90610b29565b60405180910390fd5b60018160040160146101000a81548160ff021916908360018111156103df576103de61072d565b5b02179055504281600601819055503373ffffffffffffffffffffffffffffffffffffffff16827fbccfd364eee9ccd883cff476093e807f371c7155cceccc922131ccff9e1d3a0960405160405180910390a35050565b5f8081548092919061044690610b74565b91905055506040518061010001604052805f5481526020018481526020018381526020018281526020013373ffffffffffffffffffffffffffffffffffffffff1681526020015f600181111561049f5761049e61072d565b5b81526020014281526020014281525060015f805481526020019081526020015f205f820151815f015560208201518160010190816104dd9190610d58565b5060408201518160020190816104f39190610d58565b5060608201518160030190816105099190610d58565b506080820151816004015f6101000a81548173ffffffffffffffffffffffffffffffffffffffff021916908373ffffffffffffffffffffffffffffffffffffffff16021790555060a08201518160040160146101000a81548160ff0219169083600181111561057b5761057a61072d565b5b021790555060c0820151816005015560e082015181600601559050503373ffffffffffffffffffffffffffffffffffffffff165f547f33f7fb96a894ccc457b964edfd6e9da5df1dd1f946b6f697bb3818d22e2dd1f060405160405180910390a3505050565b5f5481565b5f604051905090565b5f80fd5b5f80fd5b5f819050919050565b610609816105f7565b8114610613575f80fd5b50565b5f8135905061062481610600565b92915050565b5f6020828403121561063f5761063e6105ef565b5b5f61064c84828501610616565b91505092915050565b61065e816105f7565b82525050565b5f81519050919050565b5f82825260208201905092915050565b5f5b8381101561069b578082015181840152602081019050610680565b5f8484015250505050565b5f601f19601f8301169050919050565b5f6106c082610664565b6106ca818561066e565b93506106da81856020860161067e565b6106e3816106a6565b840191505092915050565b5f73ffffffffffffffffffffffffffffffffffffffff82169050919050565b5f610717826106ee565b9050919050565b6107278161070d565b82525050565b7f4e487b71000000000000000000000000000000000000000000000000000000005f52602160045260245ffd5b6002811061076b5761076a61072d565b5b50565b5f81905061077b8261075a565b919050565b5f61078a8261076e565b9050919050565b61079a81610780565b82525050565b5f610100820190506107b45f83018b610655565b81810360208301526107c6818a6106b6565b905081810360408301526107da81896106b6565b905081810360608301526107ee81886106b6565b90506107fd608083018761071e565b61080a60a0830186610791565b61081760c0830185610655565b61082460e0830184610655565b9998505050505050505050565b5f80fd5b5f80fd5b7f4e487b71000000000000000000000000000000000000000000000000000000005f52604160045260245ffd5b61086f826106a6565b810181811067ffffffffffffffff8211171561088e5761088d610839565b5b80604052505050565b5f6108a06105e6565b90506108ac8282610866565b919050565b5f67ffffffffffffffff8211156108cb576108ca610839565b5b6108d4826106a6565b9050602081019050919050565b828183375f83830152505050565b5f6109016108fc846108b1565b610897565b90508281526020810184848401111561091d5761091c610835565b5b6109288482856108e1565b509392505050565b5f82601f83011261094457610943610831565b5b81356109548482602086016108ef565b91505092915050565b5f805f60608486031215610974576109736105ef565b5b5f84013567ffffffffffffffff811115610991576109906105f3565b5b61099d86828701610930565b935050602084013567ffffffffffffffff8111156109be576109bd6105f3565b5b6109ca86828701610930565b925050604084013567ffffffffffffffff8111156109eb576109ea6105f3565b5b6109f786828701610930565b9150509250925092565b5f602082019050610a145f830184610655565b92915050565b7f4e487b71000000000000000000000000000000000000000000000000000000005f52602260045260245ffd5b5f6002820490506001821680610a5e57607f821691505b602082108103610a7157610a70610a1a565b5b50919050565b7f496e76616c6964206772696576616e63652049440000000000000000000000005f82015250565b5f610aab60148361066e565b9150610ab682610a77565b602082019050919050565b5f6020820190508181035f830152610ad881610a9f565b9050919050565b7f416c7265616479207265736f6c766564000000000000000000000000000000005f82015250565b5f610b1360108361066e565b9150610b1e82610adf565b602082019050919050565b5f6020820190508181035f830152610b4081610b07565b9050919050565b7f4e487b71000000000000000000000000000000000000000000000000000000005f52601160045260245ffd5b5f610b7e826105f7565b91507fffffffffffffffffffffffffffffffffffffffffffffffffffffffffffffffff8203610bb057610baf610b47565b5b600182019050919050565b5f819050815f5260205f209050919050565b5f6020601f8301049050919050565b5f82821b905092915050565b5f60088302610c177fffffffffffffffffffffffffffffffffffffffffffffffffffffffffffffffff82610bdc565b610c218683610bdc565b95508019841693508086168417925050509392505050565b5f819050919050565b5f610c5c610c57610c52846105f7565b610c39565b6105f7565b9050919050565b5f819050919050565b610c7583610c42565b610c89610c8182610c63565b848454610be8565b825550505050565b5f90565b610c9d610c91565b610ca8818484610c6c565b505050565b5b81811015610ccb57610cc05f82610c95565b600181019050610cae565b5050565b601f821115610d1057610ce181610bbb565b610cea84610bcd565b81016020851015610cf9578190505b610d0d610d0585610bcd565b830182610cad565b50505b505050565b5f82821c905092915050565b5f610d305f1984600802610d15565b1980831691505092915050565b5f610d488383610d21565b9150826002028217905092915050565b610d6182610664565b67ffffffffffffffff811115610d7a57610d79610839565b5b610d848254610a47565b610d8f828285610ccf565b5f60209050601f831160018114610dc0575f8415610dae578287015190505b610db88582610d3d565b865550610e1f565b601f198416610dce86610bbb565b5f5b82811015610df557848901518255600182019150602085019450602081019050610dd0565b86831015610e125784890151610e0e601f891682610d21565b8355505b6001600288020188555050505b50505050505056fea26469706673582212209c7fcf6901df840f9aed7e429effd0a1eafaa0473267197ba76af1752ac8dfc564736f6c63430008150033",
  "immutableReferences": {},
  "source": "// SPDX-License-Identifier: MIT\r\npragma solidity ^0.8.0;\r\n\r\ncontract SurajyaCore {\r\n    enum Status { Pending, Resolved }\r\n\r\n    struct Grievance {\r\n        uint256 id;\r\n        string category;\r\n        string locationHash;\r\n        string detailsHash;\r\n        address citizen;\r\n        Status status;\r\n        uint256 createdAt;\r\n        uint256 updatedAt;\r\n    }\r\n\r\n    uint256 public grievanceCount;\r\n    mapping(uint256 => Grievance) public grievances;\r\n\r\n    event GrievanceCreated(uint256 indexed id, address indexed citizen);\r\n    event GrievanceResolved(uint256 indexed id, address indexed citizen);\r\n\r\n    /// Citizen creates a grievance\r\n    function createGrievance(\r\n        string memory _category,\r\n        string memory _locationHash,\r\n        string memory _detailsHash\r\n    ) external {\r\n        grievanceCount++;\r\n        grievances[grievanceCount] = Grievance({\r\n            id: grievanceCount,\r\n            category: _category,\r\n            locationHash: _locationHash,\r\n            detailsHash: _detailsHash,\r\n            citizen: msg.sender,\r\n            status: Status.Pending,\r\n            createdAt: block.timestamp,\r\n            updatedAt: block.timestamp\r\n        });\r\n\r\n        emit GrievanceCreated(grievanceCount, msg.sender);\r\n    }\r\n\r\n    function resolveGrievance(uint256 _id) external {\r\n    require(_id > 0 && _id <= grievanceCount, \"Invalid grievance ID\");\r\n\r\n    Grievance storage g = grievances[_id];\r\n    require(g.status == Status.Pending, \"Already resolved\");\r\n\r\n    // In your prototype, any account acting as an \"official\" can resolve\r\n    // Later you can restrict this with an officials mapping if needed\r\n    g.status = Status.Resolved;\r\n    g.updatedAt = block.timestamp;\r\n\r\n    emit GrievanceResolved(_id, msg.sender);\r\n}\r\n\r\n}\r\n",
  "sourcePath": "X:\\Govt_Gre\\contracts\\SurajyaCore.sol",
  "compiler": {
    "name": "solc",
    "version": "0.8.21+commit.d9974bed.Emscripten.clang"
  },
  "schemaVersion": "3.4.16",
  "updatedAt": "2025-08-22T14:53:32.035Z",
  "networkType": "ethereum",
  "devdoc": {
    "kind": "dev",
    "methods": {},
    "version": 1
  },
  "userdoc": {
    "kind": "user",
    "methods": {
      "createGrievance(string,string,string)": {
        "notice": "Citizen creates a grievance"
      }
    },
    "version": 1
  }
}