{
  "contractName": "SurajyaCore",
  "abi": [
    {
      "inputs": [
        {
          "internalType": "address",
          "name": "_oracle",
          "type": "address"
        }
      ],
      "stateMutability": "nonpayable",
      "type": "constructor"
    },
    {
      "anonymous": false,
      "inputs": [
        {
          "indexed": true,
          "internalType": "uint256",
          "name": "id",
          "type": "uint256"
        },
        {
          "indexed": true,
          "internalType": "address",
          "name": "official",
          "type": "address"
        }
      ],
      "name": "GrievanceAssigned",
      "type": "event"
    },
    {
      "anonymous": false,
      "inputs": [
        {
          "indexed": true,
          "internalType": "uint256",
          "name": "id",
          "type": "uint256"
        },
        {
          "indexed": true,
          "internalType": "address",
          "name": "citizen",
          "type": "address"
        }
      ],
      "name": "GrievanceCreated",
      "type": "event"
    },
    {
      "anonymous": false,
      "inputs": [
        {
          "indexed": true,
          "internalType": "uint256",
          "name": "id",
          "type": "uint256"
        },
        {
          "indexed": false,
          "internalType": "uint8",
          "name": "newLevel",
          "type": "uint8"
        },
        {
          "indexed": false,
          "internalType": "address",
          "name": "newOfficial",
          "type": "address"
        }
      ],
      "name": "GrievanceEscalated",
      "type": "event"
    },
    {
      "anonymous": false,
      "inputs": [
        {
          "indexed": true,
          "internalType": "uint256",
          "name": "id",
          "type": "uint256"
        },
        {
          "indexed": true,
          "internalType": "address",
          "name": "official",
          "type": "address"
        }
      ],
      "name": "GrievanceResolved",
      "type": "event"
    },
    {
      "inputs": [],
      "name": "grievanceCount",
      "outputs": [
        {
          "internalType": "uint256",
          "name": "",
          "type": "uint256"
        }
      ],
      "stateMutability": "view",
      "type": "function"
    },
    {
      "inputs": [
        {
          "internalType": "uint256",
          "name": "",
          "type": "uint256"
        }
      ],
      "name": "grievances",
      "outputs": [
        {
          "internalType": "uint256",
          "name": "id",
          "type": "uint256"
        },
        {
          "internalType": "string",
          "name": "category",
          "type": "string"
        },
        {
          "internalType": "string",
          "name": "locationHash",
          "type": "string"
        },
        {
          "internalType": "string",
          "name": "detailsHash",
          "type": "string"
        },
        {
          "internalType": "address",
          "name": "citizen",
          "type": "address"
        },
        {
          "internalType": "address",
          "name": "assignedOfficial",
          "type": "address"
        },
        {
          "internalType": "enum SurajyaCore.Status",
          "name": "status",
          "type": "uint8"
        },
        {
          "internalType": "uint8",
          "name": "escalationLevel",
          "type": "uint8"
        },
        {
          "internalType": "uint256",
          "name": "createdAt",
          "type": "uint256"
        },
        {
          "internalType": "uint256",
          "name": "updatedAt",
          "type": "uint256"
        }
      ],
      "stateMutability": "view",
      "type": "function"
    },
    {
      "inputs": [
        {
          "internalType": "address",
          "name": "",
          "type": "address"
        }
      ],
      "name": "officials",
      "outputs": [
        {
          "internalType": "bool",
          "name": "",
          "type": "bool"
        }
      ],
      "stateMutability": "view",
      "type": "function"
    },
    {
      "inputs": [],
      "name": "oracle",
      "outputs": [
        {
          "internalType": "address",
          "name": "",
          "type": "address"
        }
      ],
      "stateMutability": "view",
      "type": "function"
    },
    {
      "inputs": [],
      "name": "owner",
      "outputs": [
        {
          "internalType": "address",
          "name": "",
          "type": "address"
        }
      ],
      "stateMutability": "view",
      "type": "function"
    },
    {
      "inputs": [
        {
          "internalType": "address",
          "name": "_official",
          "type": "address"
        }
      ],
      "name": "addOfficial",
      "outputs": [],
      "stateMutability": "nonpayable",
      "type": "function"
    },
    {
      "inputs": [
        {
          "internalType": "string",
          "name": "_category",
          "type": "string"
        },
        {
          "internalType": "string",
          "name": "_locationHash",
          "type": "string"
        },
        {
          "internalType": "string",
          "name": "_detailsHash",
          "type": "string"
        }
      ],
      "name": "createGrievance",
      "outputs": [],
      "stateMutability": "nonpayable",
      "type": "function"
    },
    {
      "inputs": [
        {
          "internalType": "uint256",
          "name": "_grievanceId",
          "type": "uint256"
        },
        {
          "internalType": "address",
          "name": "_newOfficial",
          "type": "address"
        }
      ],
      "name": "escalateGrievance",
      "outputs": [],
      "stateMutability": "nonpayable",
      "type": "function"
    },
    {
      "inputs": [
        {
          "internalType": "uint256",
          "name": "_grievanceId",
          "type": "uint256"
        }
      ],
      "name": "acceptGrievance",
      "outputs": [],
      "stateMutability": "nonpayable",
      "type": "function"
    },
    {
      "inputs": [
        {
          "internalType": "uint256",
          "name": "_grievanceId",
          "type": "uint256"
        }
      ],
      "name": "resolveGrievance",
      "outputs": [],
      "stateMutability": "nonpayable",
      "type": "function"
    },
    {
      "inputs": [
        {
          "internalType": "address",
          "name": "_newOracle",
          "type": "address"
        }
      ],
      "name": "changeOracle",
      "outputs": [],
      "stateMutability": "nonpayable",
      "type": "function"
    }
  ],
  "bytecode": "0x608060405234801562000010575f80fd5b5060405162001ef138038062001ef1833981810160405281019062000036919062000122565b3360035f6101000a81548173ffffffffffffffffffffffffffffffffffffffff021916908373ffffffffffffffffffffffffffffffffffffffff1602179055508060025f6101000a81548173ffffffffffffffffffffffffffffffffffffffff021916908373ffffffffffffffffffffffffffffffffffffffff1602179055505062000152565b5f80fd5b5f73ffffffffffffffffffffffffffffffffffffffff82169050919050565b5f620000ec82620000c1565b9050919050565b620000fe81620000e0565b811462000109575f80fd5b50565b5f815190506200011c81620000f3565b92915050565b5f602082840312156200013a5762000139620000bd565b5b5f62000149848285016200010c565b91505092915050565b611d9180620001605f395ff3fe608060405234801561000f575f80fd5b50600436106100a7575f3560e01c80636d0f91d91161006f5780636d0f91d9146101545780637dc0d1d0146101725780638da5cb5b14610190578063ac840db0146101ae578063b2d51bd8146101ca578063d93321ef146101e6576100a7565b8063356f1d75146100ab5780633bf5dbf9146100e457806347c421b51461010057806352156a411461011c5780635944245314610138575b5f80fd5b6100c560048036038101906100c0919061106b565b610216565b6040516100db9a999897969594939291906111fc565b60405180910390f35b6100fe60048036038101906100f9919061106b565b610450565b005b61011a600480360381019061011591906112d5565b610674565b005b61013660048036038101906101319190611300565b610746565b005b610152600480360381019061014d919061146a565b610a34565b005b61015c610cf5565b604051610169919061150e565b60405180910390f35b61017a610cfa565b6040516101879190611527565b60405180910390f35b610198610d1f565b6040516101a59190611527565b60405180910390f35b6101c860048036038101906101c391906112d5565b610d44565b005b6101e460048036038101906101df919061106b565b610e2b565b005b61020060048036038101906101fb91906112d5565b61100a565b60405161020d919061155a565b60405180910390f35b6001602052805f5260405f205f91509050805f01549080600101805461023b906115a0565b80601f0160208091040260200160405190810160405280929190818152602001828054610267906115a0565b80156102b25780601f10610289576101008083540402835291602001916102b2565b820191905f5260205f20905b81548152906001019060200180831161029557829003601f168201915b5050505050908060020180546102c7906115a0565b80601f01602080910402602001604051908101604052809291908181526020018280546102f3906115a0565b801561033e5780601f106103155761010080835404028352916020019161033e565b820191905f5260205f20905b81548152906001019060200180831161032157829003601f168201915b505050505090806003018054610353906115a0565b80601f016020809104026020016040519081016040528092919081815260200182805461037f906115a0565b80156103ca5780601f106103a1576101008083540402835291602001916103ca565b820191905f5260205f20905b8154815290600101906020018083116103ad57829003601f168201915b505050505090806004015f9054906101000a900473ffffffffffffffffffffffffffffffffffffffff1690806005015f9054906101000a900473ffffffffffffffffffffffffffffffffffffffff16908060050160149054906101000a900460ff16908060050160159054906101000a900460ff1690806006015490806007015490508a565b60045f3373ffffffffffffffffffffffffffffffffffffffff1673ffffffffffffffffffffffffffffffffffffffff1681526020019081526020015f205f9054906101000a900460ff166104d9576040517f08c379a00000000000000000000000000000000000000000000000000000000081526004016104d090611640565b60405180910390fd5b5f60015f8381526020019081526020015f2090503373ffffffffffffffffffffffffffffffffffffffff16816005015f9054906101000a900473ffffffffffffffffffffffffffffffffffffffff1673ffffffffffffffffffffffffffffffffffffffff161461057e576040517f08c379a0000000000000000000000000000000000000000000000000000000008152600401610575906116a8565b60405180910390fd5b600160028111156105925761059161116e565b5b8160050160149054906101000a900460ff1660028111156105b6576105b561116e565b5b146105f6576040517f08c379a00000000000000000000000000000000000000000000000000000000081526004016105ed90611710565b60405180910390fd5b60028160050160146101000a81548160ff0219169083600281111561061e5761061d61116e565b5b02179055504281600701819055503373ffffffffffffffffffffffffffffffffffffffff16827fbccfd364eee9ccd883cff476093e807f371c7155cceccc922131ccff9e1d3a0960405160405180910390a35050565b60035f9054906101000a900473ffffffffffffffffffffffffffffffffffffffff1673ffffffffffffffffffffffffffffffffffffffff163373ffffffffffffffffffffffffffffffffffffffff1614610703576040517f08c379a00000000000000000000000000000000000000000000000000000000081526004016106fa90611778565b60405180910390fd5b8060025f6101000a81548173ffffffffffffffffffffffffffffffffffffffff021916908373ffffffffffffffffffffffffffffffffffffffff16021790555050565b60025f9054906101000a900473ffffffffffffffffffffffffffffffffffffffff1673ffffffffffffffffffffffffffffffffffffffff163373ffffffffffffffffffffffffffffffffffffffff16146107d5576040517f08c379a00000000000000000000000000000000000000000000000000000000081526004016107cc906117e0565b60405180910390fd5b5f821180156107e557505f548211155b610824576040517f08c379a000000000000000000000000000000000000000000000000000000000815260040161081b90611848565b60405180910390fd5b5f60015f8481526020019081526020015f2090505f600281111561084b5761084a61116e565b5b8160050160149054906101000a900460ff16600281111561086f5761086e61116e565b5b14806108b057506001600281111561088a5761088961116e565b5b8160050160149054906101000a900460ff1660028111156108ae576108ad61116e565b5b145b6108ef576040517f08c379a00000000000000000000000000000000000000000000000000000000081526004016108e6906118b0565b60405180910390fd5b5f8160050160146101000a81548160ff021916908360028111156109165761091561116e565b5b021790555080600501601581819054906101000a900460ff168092919061093c906118fb565b91906101000a81548160ff021916908360ff1602179055505081816005015f6101000a81548173ffffffffffffffffffffffffffffffffffffffff021916908373ffffffffffffffffffffffffffffffffffffffff160217905550428160070181905550827f985c7ba22c288a39aeaf5aad8d23b01d00068176848460095e53dbaf518e80b78260050160159054906101000a900460ff16846040516109e3929190611923565b60405180910390a28173ffffffffffffffffffffffffffffffffffffffff16837f6ccb1e39ac78f137783e65075bb3d2a4a7d7e65cc6960d86a9d127d264cd96a860405160405180910390a3505050565b5f835111610a77576040517f08c379a0000000000000000000000000000000000000000000000000000000008152600401610a6e90611994565b60405180910390fd5b5f825111610aba576040517f08c379a0000000000000000000000000000000000000000000000000000000008152600401610ab1906119fc565b60405180910390fd5b5f80815480929190610acb90611a1a565b91905055506040518061014001604052805f5481526020018481526020018381526020018281526020013373ffffffffffffffffffffffffffffffffffffffff1681526020015f73ffffffffffffffffffffffffffffffffffffffff1681526020015f6002811115610b4057610b3f61116e565b5b8152602001600160ff1681526020014281526020014281525060015f805481526020019081526020015f205f820151815f01556020820151816001019081610b889190611bfe565b506040820151816002019081610b9e9190611bfe565b506060820151816003019081610bb49190611bfe565b506080820151816004015f6101000a81548173ffffffffffffffffffffffffffffffffffffffff021916908373ffffffffffffffffffffffffffffffffffffffff16021790555060a0820151816005015f6101000a81548173ffffffffffffffffffffffffffffffffffffffff021916908373ffffffffffffffffffffffffffffffffffffffff16021790555060c08201518160050160146101000a81548160ff02191690836002811115610c6c57610c6b61116e565b5b021790555060e08201518160050160156101000a81548160ff021916908360ff160217905550610100820151816006015561012082015181600701559050503373ffffffffffffffffffffffffffffffffffffffff165f547f33f7fb96a894ccc457b964edfd6e9da5df1dd1f946b6f697bb3818d22e2dd1f060405160405180910390a3505050565b5f5481565b60025f9054906101000a900473ffffffffffffffffffffffffffffffffffffffff1681565b60035f9054906101000a900473ffffffffffffffffffffffffffffffffffffffff1681565b60035f9054906101000a900473ffffffffffffffffffffffffffffffffffffffff1673ffffffffffffffffffffffffffffffffffffffff163373ffffffffffffffffffffffffffffffffffffffff1614610dd3576040517f08c379a0000000000000000000000000000000000000000000000000000000008152600401610dca90611778565b60405180910390fd5b600160045f8373ffffffffffffffffffffffffffffffffffffffff1673ffffffffffffffffffffffffffffffffffffffff1681526020019081526020015f205f6101000a81548160ff02191690831515021790555050565b60045f3373ffffffffffffffffffffffffffffffffffffffff1673ffffffffffffffffffffffffffffffffffffffff1681526020019081526020015f205f9054906101000a900460ff16610eb4576040517f08c379a0000000000000000000000000000000000000000000000000000000008152600401610eab90611640565b60405180910390fd5b5f60015f8381526020019081526020015f2090503373ffffffffffffffffffffffffffffffffffffffff16816005015f9054906101000a900473ffffffffffffffffffffffffffffffffffffffff1673ffffffffffffffffffffffffffffffffffffffff1614610f59576040517f08c379a0000000000000000000000000000000000000000000000000000000008152600401610f50906116a8565b60405180910390fd5b5f6002811115610f6c57610f6b61116e565b5b8160050160149054906101000a900460ff166002811115610f9057610f8f61116e565b5b14610fd0576040517f08c379a0000000000000000000000000000000000000000000000000000000008152600401610fc790611d3d565b60405180910390fd5b60018160050160146101000a81548160ff02191690836002811115610ff857610ff761116e565b5b02179055504281600701819055505050565b6004602052805f5260405f205f915054906101000a900460ff1681565b5f604051905090565b5f80fd5b5f80fd5b5f819050919050565b61104a81611038565b8114611054575f80fd5b50565b5f8135905061106581611041565b92915050565b5f602082840312156110805761107f611030565b5b5f61108d84828501611057565b91505092915050565b61109f81611038565b82525050565b5f81519050919050565b5f82825260208201905092915050565b5f5b838110156110dc5780820151818401526020810190506110c1565b5f8484015250505050565b5f601f19601f8301169050919050565b5f611101826110a5565b61110b81856110af565b935061111b8185602086016110bf565b611124816110e7565b840191505092915050565b5f73ffffffffffffffffffffffffffffffffffffffff82169050919050565b5f6111588261112f565b9050919050565b6111688161114e565b82525050565b7f4e487b71000000000000000000000000000000000000000000000000000000005f52602160045260245ffd5b600381106111ac576111ab61116e565b5b50565b5f8190506111bc8261119b565b919050565b5f6111cb826111af565b9050919050565b6111db816111c1565b82525050565b5f60ff82169050919050565b6111f6816111e1565b82525050565b5f610140820190506112105f83018d611096565b8181036020830152611222818c6110f7565b90508181036040830152611236818b6110f7565b9050818103606083015261124a818a6110f7565b9050611259608083018961115f565b61126660a083018861115f565b61127360c08301876111d2565b61128060e08301866111ed565b61128e610100830185611096565b61129c610120830184611096565b9b9a5050505050505050505050565b6112b48161114e565b81146112be575f80fd5b50565b5f813590506112cf816112ab565b92915050565b5f602082840312156112ea576112e9611030565b5b5f6112f7848285016112c1565b91505092915050565b5f806040838503121561131657611315611030565b5b5f61132385828601611057565b9250506020611334858286016112c1565b9150509250929050565b5f80fd5b5f80fd5b7f4e487b71000000000000000000000000000000000000000000000000000000005f52604160045260245ffd5b61137c826110e7565b810181811067ffffffffffffffff8211171561139b5761139a611346565b5b80604052505050565b5f6113ad611027565b90506113b98282611373565b919050565b5f67ffffffffffffffff8211156113d8576113d7611346565b5b6113e1826110e7565b9050602081019050919050565b828183375f83830152505050565b5f61140e611409846113be565b6113a4565b90508281526020810184848401111561142a57611429611342565b5b6114358482856113ee565b509392505050565b5f82601f8301126114515761145061133e565b5b81356114618482602086016113fc565b91505092915050565b5f805f6060848603121561148157611480611030565b5b5f84013567ffffffffffffffff81111561149e5761149d611034565b5b6114aa8682870161143d565b935050602084013567ffffffffffffffff8111156114cb576114ca611034565b5b6114d78682870161143d565b925050604084013567ffffffffffffffff8111156114f8576114f7611034565b5b6115048682870161143d565b9150509250925092565b5f6020820190506115215f830184611096565b92915050565b5f60208201905061153a5f83018461115f565b92915050565b5f8115159050919050565b61155481611540565b82525050565b5f60208201905061156d5f83018461154b565b92915050565b7f4e487b71000000000000000000000000000000000000000000000000000000005f52602260045260245ffd5b5f60028204905060018216806115b757607f821691505b6020821081036115ca576115c9611573565b5b50919050565b7f43616c6c6572206973206e6f7420616e20617574686f72697a6564206f6666695f8201527f6369616c00000000000000000000000000000000000000000000000000000000602082015250565b5f61162a6024836110af565b9150611635826115d0565b604082019050919050565b5f6020820190508181035f8301526116578161161e565b9050919050565b7f4772696576616e6365206e6f742061737369676e656420746f20796f750000005f82015250565b5f611692601d836110af565b915061169d8261165e565b602082019050919050565b5f6020820190508181035f8301526116bf81611686565b9050919050565b7f4772696576616e6365206e6f7420696e2070726f6772657373000000000000005f82015250565b5f6116fa6019836110af565b9150611705826116c6565b602082019050919050565b5f6020820190508181035f830152611727816116ee565b9050919050565b7f43616c6c6572206973206e6f7420746865206f776e65720000000000000000005f82015250565b5f6117626017836110af565b915061176d8261172e565b602082019050919050565b5f6020820190508181035f83015261178f81611756565b9050919050565b7f43616c6c6572206973206e6f7420746865206f7261636c6500000000000000005f82015250565b5f6117ca6018836110af565b91506117d582611796565b602082019050919050565b5f6020820190508181035f8301526117f7816117be565b9050919050565b7f496e76616c6964206772696576616e63652049440000000000000000000000005f82015250565b5f6118326014836110af565b915061183d826117fe565b602082019050919050565b5f6020820190508181035f83015261185f81611826565b9050919050565b7f4772696576616e6365206e6f74206163746976650000000000000000000000005f82015250565b5f61189a6014836110af565b91506118a582611866565b602082019050919050565b5f6020820190508181035f8301526118c78161188e565b9050919050565b7f4e487b71000000000000000000000000000000000000000000000000000000005f52601160045260245ffd5b5f611905826111e1565b915060ff8203611918576119176118ce565b5b600182019050919050565b5f6040820190506119365f8301856111ed565b611943602083018461115f565b9392505050565b7f43617465676f72792069732072657175697265640000000000000000000000005f82015250565b5f61197e6014836110af565b91506119898261194a565b602082019050919050565b5f6020820190508181035f8301526119ab81611972565b9050919050565b7f4c6f636174696f6e2068617368206973207265717569726564000000000000005f82015250565b5f6119e66019836110af565b91506119f1826119b2565b602082019050919050565b5f6020820190508181035f830152611a13816119da565b9050919050565b5f611a2482611038565b91507fffffffffffffffffffffffffffffffffffffffffffffffffffffffffffffffff8203611a5657611a556118ce565b5b600182019050919050565b5f819050815f5260205f209050919050565b5f6020601f8301049050919050565b5f82821b905092915050565b5f60088302611abd7fffffffffffffffffffffffffffffffffffffffffffffffffffffffffffffffff82611a82565b611ac78683611a82565b95508019841693508086168417925050509392505050565b5f819050919050565b5f611b02611afd611af884611038565b611adf565b611038565b9050919050565b5f819050919050565b611b1b83611ae8565b611b2f611b2782611b09565b848454611a8e565b825550505050565b5f90565b611b43611b37565b611b4e818484611b12565b505050565b5b81811015611b7157611b665f82611b3b565b600181019050611b54565b5050565b601f821115611bb657611b8781611a61565b611b9084611a73565b81016020851015611b9f578190505b611bb3611bab85611a73565b830182611b53565b50505b505050565b5f82821c905092915050565b5f611bd65f1984600802611bbb565b1980831691505092915050565b5f611bee8383611bc7565b9150826002028217905092915050565b611c07826110a5565b67ffffffffffffffff811115611c2057611c1f611346565b5b611c2a82546115a0565b611c35828285611b75565b5f60209050601f831160018114611c66575f8415611c54578287015190505b611c5e8582611be3565b865550611cc5565b601f198416611c7486611a61565b5f5b82811015611c9b57848901518255600182019150602085019450602081019050611c76565b86831015611cb85784890151611cb4601f891682611bc7565b8355505b6001600288020188555050505b505050505050565b7f4772696576616e636520616c726561647920696e2070726f6772657373206f725f8201527f207265736f6c7665640000000000000000000000000000000000000000000000602082015250565b5f611d276029836110af565b9150611d3282611ccd565b604082019050919050565b5f6020820190508181035f830152611d5481611d1b565b905091905056fea2646970667358221220049b8c780c24690d5c19fc0f91e274c4e3228841e95eaf80d7f135a9868b39b864736f6c63430008150033",
  "immutableReferences": {},
  "source": "// SPDX-License-Identifier: MIT\r\npragma solidity ^0.8.0;\r\n\r\ncontract SurajyaCore {\r\n    enum Status { Pending, InProgress, Resolved } // Added an InProgress state\r\n\r\n    struct Grievance {\r\n        uint256 id;\r\n        string category;\r\n        string locationHash;\r\n        string detailsHash;\r\n        address citizen;\r\n        address assignedOfficial;\r\n        Status status;\r\n        uint8 escalationLevel;\r\n        uint256 createdAt;\r\n        uint256 updatedAt;\r\n    }\r\n\r\n    uint256 public grievanceCount;\r\n    mapping(uint256 => Grievance) public grievances;\r\n    \r\n    address public oracle;\r\n    address public owner;\r\n    mapping(address => bool) public officials;\r\n\r\n    event GrievanceCreated(uint256 indexed id, address indexed citizen);\r\n    event GrievanceAssigned(uint256 indexed id, address indexed official);\r\n    event GrievanceEscalated(uint256 indexed id, uint8 newLevel, address newOfficial);\r\n    event GrievanceResolved(uint256 indexed id, address indexed official);\r\n\r\n    modifier onlyOracle() {\r\n        require(msg.sender == oracle, \"Caller is not the oracle\");\r\n        _;\r\n    }\r\n\r\n    modifier onlyOfficial() {\r\n        require(officials[msg.sender], \"Caller is not an authorized official\");\r\n        _;\r\n    }\r\n\r\n    modifier onlyOwner() {\r\n        require(msg.sender == owner, \"Caller is not the owner\");\r\n        _;\r\n    }\r\n\r\n    constructor(address _oracle) {\r\n        owner = msg.sender;\r\n        oracle = _oracle;\r\n    }\r\n\r\n    function addOfficial(address _official) external onlyOwner {\r\n        officials[_official] = true;\r\n    }\r\n\r\n    function createGrievance(string memory _category, string memory _locationHash, string memory _detailsHash) external {\r\n        require(bytes(_category).length > 0, \"Category is required\");\r\n        require(bytes(_locationHash).length > 0, \"Location hash is required\");\r\n\r\n        grievanceCount++;\r\n        grievances[grievanceCount] = Grievance({\r\n            id: grievanceCount,\r\n            category: _category,\r\n            locationHash: _locationHash,\r\n            detailsHash: _detailsHash,\r\n            citizen: msg.sender,\r\n            assignedOfficial: address(0),\r\n            status: Status.Pending,\r\n            escalationLevel: 1, // Start at level 1\r\n            createdAt: block.timestamp,\r\n            updatedAt: block.timestamp\r\n        });\r\n        emit GrievanceCreated(grievanceCount, msg.sender);\r\n    }\r\n\r\n    // Oracle calls this after off-chain OTP verification and official lookup\r\n    function escalateGrievance(uint256 _grievanceId, address _newOfficial) external onlyOracle {\r\n        require(_grievanceId > 0 && _grievanceId <= grievanceCount, \"Invalid grievance ID\");\r\n        Grievance storage g = grievances[_grievanceId];\r\n        require(g.status == Status.Pending || g.status == Status.InProgress, \"Grievance not active\");\r\n\r\n        g.status = Status.Pending; // Reset to Pending for the new official\r\n        g.escalationLevel++;\r\n        g.assignedOfficial = _newOfficial;\r\n        g.updatedAt = block.timestamp;\r\n\r\n        emit GrievanceEscalated(_grievanceId, g.escalationLevel, _newOfficial);\r\n        emit GrievanceAssigned(_grievanceId, _newOfficial);\r\n    }\r\n\r\n    // An official can mark a grievance as In Progress\r\n    function acceptGrievance(uint256 _grievanceId) external onlyOfficial {\r\n        Grievance storage g = grievances[_grievanceId];\r\n        require(g.assignedOfficial == msg.sender, \"Grievance not assigned to you\");\r\n        require(g.status == Status.Pending, \"Grievance already in progress or resolved\");\r\n        g.status = Status.InProgress;\r\n        g.updatedAt = block.timestamp;\r\n    }\r\n\r\n    // Official resolves the grievance. Off-chain system handles OTP check first.\r\n    function resolveGrievance(uint256 _grievanceId) external onlyOfficial {\r\n        Grievance storage g = grievances[_grievanceId];\r\n        require(g.assignedOfficial == msg.sender, \"Grievance not assigned to you\");\r\n        require(g.status == Status.InProgress, \"Grievance not in progress\");\r\n        g.status = Status.Resolved;\r\n        g.updatedAt = block.timestamp;\r\n        emit GrievanceResolved(_grievanceId, msg.sender);\r\n    }\r\n\r\n    // Admin functions\r\n    function changeOracle(address _newOracle) external onlyOwner {\r\n        oracle = _newOracle;\r\n    }\r\n}",
  "sourcePath": "X:\\Govt_Gre\\contracts\\SurajyaCore.sol",
  "compiler": {
    "name": "solc",
    "version": "0.8.21+commit.d9974bed.Emscripten.clang"
  },
  "schemaVersion": "3.4.16",
  "updatedAt": "2025-08-22T04:32:36.284Z",
  "devdoc": {
    "kind": "dev",
    "methods": {},
    "version": 1
  },
  "userdoc": {
    "kind": "user",
    "methods": {},
    "version": 1
  }
}